{
  "address": "0xD0552DD8058adDE1D705962b92571c6065F1B147",
  "abi": [
    {
      "inputs": [
        {
          "internalType": "address",
          "name": "",
          "type": "address"
        },
        {
          "internalType": "uint256",
          "name": "",
          "type": "uint256"
        }
      ],
      "name": "device",
      "outputs": [
        {
          "internalType": "string",
          "name": "hashedpw",
          "type": "string"
        },
        {
          "internalType": "bool",
          "name": "active",
          "type": "bool"
        }
      ],
      "stateMutability": "view",
      "type": "function"
    },
    {
      "inputs": [
        {
          "internalType": "address",
          "name": "",
          "type": "address"
        }
      ],
      "name": "deviceLength",
      "outputs": [
        {
          "internalType": "uint256",
          "name": "",
          "type": "uint256"
        }
      ],
      "stateMutability": "view",
      "type": "function"
    },
    {
      "inputs": [
        {
          "internalType": "string",
          "name": "_hashedpw",
          "type": "string"
        },
        {
          "internalType": "bool",
          "name": "_status",
          "type": "bool"
        }
      ],
      "name": "registerDevice",
      "outputs": [],
      "stateMutability": "nonpayable",
      "type": "function"
    },
    {
      "inputs": [
        {
          "internalType": "uint256",
          "name": "_index",
          "type": "uint256"
        },
        {
          "internalType": "bool",
          "name": "_status",
          "type": "bool"
        }
      ],
      "name": "setDeviceActive",
      "outputs": [],
      "stateMutability": "nonpayable",
      "type": "function"
    },
    {
      "inputs": [
        {
          "internalType": "uint256",
          "name": "_index",
          "type": "uint256"
        },
        {
          "internalType": "string",
          "name": "_hashedpw",
          "type": "string"
        }
      ],
      "name": "setDeviceHashedPassword",
      "outputs": [],
      "stateMutability": "nonpayable",
      "type": "function"
    }
  ],
  "transactionHash": "0x17d074d769a1f8811c0feafbe354720a072a3a79e173e23cad35d1faa274b8c0",
  "args": [],
  "numDeployments": 1,
  "solcInputHash": "8c95936c1a68232fdbd8c2e1e37e67c9",
  "bytecode": "0x608060405234801561001057600080fd5b50610648806100206000396000f3fe608060405234801561001057600080fd5b50600436106100575760003560e01c806308ecde4f1461005c5780636b20d007146100865780637025a7571461009b57806387466770146100ae578063efa34522146100dc575b600080fd5b61006f61006a366004610295565b610118565b60405161007d9291906102bf565b60405180910390f35b6100996100943660046103c9565b6101c7565b005b6100996100a9366004610417565b610252565b6100ce6100bc36600461045e565b60016020526000908152604090205481565b60405190815260200161007d565b6100996100ea366004610480565b3360009081526020818152604080832094835293905291909120600101805460ff1916911515919091179055565b600060208181529281526040808220909352908152208054819061013b906104a3565b80601f0160208091040260200160405190810160405280929190818152602001828054610167906104a3565b80156101b45780601f10610189576101008083540402835291602001916101b4565b820191906000526020600020905b81548152906001019060200180831161019757829003601f168201915b5050506001909301549192505060ff1682565b3360008181526001602090815260408083205481518083018352878152861515818501529484528383528184208185529092529091208251919291819061020e908261052b565b506020918201516001918201805460ff191691151591909117905533600090815291819052604082208054919290916102489084906105eb565b9091555050505050565b336000908152602081815260408083208584529091529020610274828261052b565b505050565b80356001600160a01b038116811461029057600080fd5b919050565b600080604083850312156102a857600080fd5b6102b183610279565b946020939093013593505050565b604081526000835180604084015260005b818110156102ed57602081870181015160608684010152016102d0565b506000606082850101526060601f19601f83011684010191505082151560208301529392505050565b634e487b7160e01b600052604160045260246000fd5b600082601f83011261033d57600080fd5b813567ffffffffffffffff8082111561035857610358610316565b604051601f8301601f19908116603f0116810190828211818310171561038057610380610316565b8160405283815286602085880101111561039957600080fd5b836020870160208301376000602085830101528094505050505092915050565b8035801515811461029057600080fd5b600080604083850312156103dc57600080fd5b823567ffffffffffffffff8111156103f357600080fd5b6103ff8582860161032c565b92505061040e602084016103b9565b90509250929050565b6000806040838503121561042a57600080fd5b82359150602083013567ffffffffffffffff81111561044857600080fd5b6104548582860161032c565b9150509250929050565b60006020828403121561047057600080fd5b61047982610279565b9392505050565b6000806040838503121561049357600080fd5b8235915061040e602084016103b9565b600181811c908216806104b757607f821691505b6020821081036104d757634e487b7160e01b600052602260045260246000fd5b50919050565b601f82111561027457600081815260208120601f850160051c810160208610156105045750805b601f850160051c820191505b8181101561052357828155600101610510565b505050505050565b815167ffffffffffffffff81111561054557610545610316565b6105598161055384546104a3565b846104dd565b602080601f83116001811461058e57600084156105765750858301515b600019600386901b1c1916600185901b178555610523565b600085815260208120601f198616915b828110156105bd5788860151825594840194600190910190840161059e565b50858210156105db5787850151600019600388901b60f8161c191681555b5050505050600190811b01905550565b8082018082111561060c57634e487b7160e01b600052601160045260246000fd5b9291505056fea26469706673582212209f53ab34d09738e75e8e087d5ada6fd2a9222c93daa06ea17730f9e78091786864736f6c63430008110033",
  "devdoc": {
    "kind": "dev",
    "methods": {},
    "version": 1
  },
  "userdoc": {
    "kind": "user",
    "methods": {},
    "version": 1
  },
  "storageLayout": {
    "storage": [
      {
        "astId": 14,
        "contract": "contracts/MqttBlockchainAcl.sol:MqttBlockchainAcl",
        "label": "device",
        "offset": 0,
        "slot": "0",
        "type": "t_mapping(t_address,t_mapping(t_uint256,t_struct(DeviceInfo)7_storage))"
      },
      {
        "astId": 18,
        "contract": "contracts/MqttBlockchainAcl.sol:MqttBlockchainAcl",
        "label": "deviceLength",
        "offset": 0,
        "slot": "1",
        "type": "t_mapping(t_address,t_uint256)"
      }
    ],
    "types": {
      "t_address": {
        "encoding": "inplace",
        "label": "address",
        "numberOfBytes": "20"
      },
      "t_bool": {
        "encoding": "inplace",
        "label": "bool",
        "numberOfBytes": "1"
      },
      "t_mapping(t_address,t_mapping(t_uint256,t_struct(DeviceInfo)7_storage))": {
        "encoding": "mapping",
        "key": "t_address",
        "label": "mapping(address => mapping(uint256 => struct MqttBlockchainAcl.DeviceInfo))",
        "numberOfBytes": "32",
        "value": "t_mapping(t_uint256,t_struct(DeviceInfo)7_storage)"
      },
      "t_mapping(t_address,t_uint256)": {
        "encoding": "mapping",
        "key": "t_address",
        "label": "mapping(address => uint256)",
        "numberOfBytes": "32",
        "value": "t_uint256"
      },
      "t_mapping(t_uint256,t_struct(DeviceInfo)7_storage)": {
        "encoding": "mapping",
        "key": "t_uint256",
        "label": "mapping(uint256 => struct MqttBlockchainAcl.DeviceInfo)",
        "numberOfBytes": "32",
        "value": "t_struct(DeviceInfo)7_storage"
      },
      "t_string_storage": {
        "encoding": "bytes",
        "label": "string",
        "numberOfBytes": "32"
      },
      "t_struct(DeviceInfo)7_storage": {
        "encoding": "inplace",
        "label": "struct MqttBlockchainAcl.DeviceInfo",
        "members": [
          {
            "astId": 4,
            "contract": "contracts/MqttBlockchainAcl.sol:MqttBlockchainAcl",
            "label": "hashedpw",
            "offset": 0,
            "slot": "0",
            "type": "t_string_storage"
          },
          {
            "astId": 6,
            "contract": "contracts/MqttBlockchainAcl.sol:MqttBlockchainAcl",
            "label": "active",
            "offset": 0,
            "slot": "1",
            "type": "t_bool"
          }
        ],
        "numberOfBytes": "64"
      },
      "t_uint256": {
        "encoding": "inplace",
        "label": "uint256",
        "numberOfBytes": "32"
      }
    }
  }
}